{
  "_format": "hh-sol-artifact-1",
  "contractName": "MyEpicGame",
  "sourceName": "contracts/MyEpicGame.sol",
  "abi": [
    {
      "inputs": [
        {
          "internalType": "string[]",
          "name": "characterNames",
          "type": "string[]"
        },
        {
          "internalType": "string[]",
          "name": "characterImageURIs",
          "type": "string[]"
        },
        {
          "internalType": "uint256[]",
          "name": "characterLevel",
          "type": "uint256[]"
        },
        {
          "internalType": "uint256[]",
          "name": "characterHp",
          "type": "uint256[]"
        },
        {
          "internalType": "uint256[]",
          "name": "characterAttackDmg1",
          "type": "uint256[]"
        },
        {
          "internalType": "uint256[]",
          "name": "characterSpeed",
          "type": "uint256[]"
        },
        {
          "internalType": "uint256[]",
          "name": "characterInformationValue",
          "type": "uint256[]"
        },
        {
          "internalType": "string",
          "name": "bossName",
          "type": "string"
        },
        {
          "internalType": "uint256",
          "name": "bossHp",
          "type": "uint256"
        },
        {
          "internalType": "uint256",
          "name": "bossAttackDamage",
          "type": "uint256"
        }
      ],
      "stateMutability": "nonpayable",
      "type": "constructor"
    },
    {
      "anonymous": false,
      "inputs": [
        {
          "indexed": true,
          "internalType": "address",
          "name": "owner",
          "type": "address"
        },
        {
          "indexed": true,
          "internalType": "address",
          "name": "approved",
          "type": "address"
        },
        {
          "indexed": true,
          "internalType": "uint256",
          "name": "tokenId",
          "type": "uint256"
        }
      ],
      "name": "Approval",
      "type": "event"
    },
    {
      "anonymous": false,
      "inputs": [
        {
          "indexed": true,
          "internalType": "address",
          "name": "owner",
          "type": "address"
        },
        {
          "indexed": true,
          "internalType": "address",
          "name": "operator",
          "type": "address"
        },
        {
          "indexed": false,
          "internalType": "bool",
          "name": "approved",
          "type": "bool"
        }
      ],
      "name": "ApprovalForAll",
      "type": "event"
    },
    {
      "anonymous": false,
      "inputs": [
        {
          "indexed": false,
          "internalType": "address",
          "name": "sender",
          "type": "address"
        },
        {
          "indexed": false,
          "internalType": "uint256",
          "name": "newBossHp",
          "type": "uint256"
        },
        {
          "indexed": false,
          "internalType": "uint256",
          "name": "newPlayerHp",
          "type": "uint256"
        }
      ],
      "name": "AttackComplete",
      "type": "event"
    },
    {
      "anonymous": false,
      "inputs": [
        {
          "indexed": false,
          "internalType": "address",
          "name": "sender",
          "type": "address"
        },
        {
          "indexed": false,
          "internalType": "uint256",
          "name": "tokenId",
          "type": "uint256"
        },
        {
          "indexed": false,
          "internalType": "uint256",
          "name": "characterIndex",
          "type": "uint256"
        }
      ],
      "name": "CharacterNFTMinted",
      "type": "event"
    },
    {
      "anonymous": false,
      "inputs": [
        {
          "indexed": true,
          "internalType": "address",
          "name": "from",
          "type": "address"
        },
        {
          "indexed": true,
          "internalType": "address",
          "name": "to",
          "type": "address"
        },
        {
          "indexed": true,
          "internalType": "uint256",
          "name": "tokenId",
          "type": "uint256"
        }
      ],
      "name": "Transfer",
      "type": "event"
    },
    {
      "inputs": [
        {
          "internalType": "address",
          "name": "to",
          "type": "address"
        },
        {
          "internalType": "uint256",
          "name": "tokenId",
          "type": "uint256"
        }
      ],
      "name": "approve",
      "outputs": [],
      "stateMutability": "nonpayable",
      "type": "function"
    },
    {
      "inputs": [],
      "name": "attackBoss",
      "outputs": [],
      "stateMutability": "nonpayable",
      "type": "function"
    },
    {
      "inputs": [
        {
          "internalType": "address",
          "name": "owner",
          "type": "address"
        }
      ],
      "name": "balanceOf",
      "outputs": [
        {
          "internalType": "uint256",
          "name": "",
          "type": "uint256"
        }
      ],
      "stateMutability": "view",
      "type": "function"
    },
    {
      "inputs": [],
      "name": "checkIfUserHasNFT",
      "outputs": [
        {
          "components": [
            {
              "internalType": "uint256",
              "name": "characterIndex",
              "type": "uint256"
            },
            {
              "internalType": "string",
              "name": "name",
              "type": "string"
            },
            {
              "internalType": "string",
              "name": "imageURI",
              "type": "string"
            },
            {
              "internalType": "uint256",
              "name": "level",
              "type": "uint256"
            },
            {
              "internalType": "uint256",
              "name": "hp",
              "type": "uint256"
            },
            {
              "internalType": "uint256",
              "name": "maxHp",
              "type": "uint256"
            },
            {
              "internalType": "uint256",
              "name": "attackDamage",
              "type": "uint256"
            },
            {
              "internalType": "uint256",
              "name": "speed",
              "type": "uint256"
            },
            {
              "internalType": "uint256",
              "name": "informationValue",
              "type": "uint256"
            }
          ],
          "internalType": "struct MyEpicGame.CharacterAttributes",
          "name": "",
          "type": "tuple"
        }
      ],
      "stateMutability": "view",
      "type": "function"
    },
    {
      "inputs": [],
      "name": "getAllDefaultCharacters",
      "outputs": [
        {
          "components": [
            {
              "internalType": "uint256",
              "name": "characterIndex",
              "type": "uint256"
            },
            {
              "internalType": "string",
              "name": "name",
              "type": "string"
            },
            {
              "internalType": "string",
              "name": "imageURI",
              "type": "string"
            },
            {
              "internalType": "uint256",
              "name": "level",
              "type": "uint256"
            },
            {
              "internalType": "uint256",
              "name": "hp",
              "type": "uint256"
            },
            {
              "internalType": "uint256",
              "name": "maxHp",
              "type": "uint256"
            },
            {
              "internalType": "uint256",
              "name": "attackDamage",
              "type": "uint256"
            },
            {
              "internalType": "uint256",
              "name": "speed",
              "type": "uint256"
            },
            {
              "internalType": "uint256",
              "name": "informationValue",
              "type": "uint256"
            }
          ],
          "internalType": "struct MyEpicGame.CharacterAttributes[]",
          "name": "",
          "type": "tuple[]"
        }
      ],
      "stateMutability": "view",
      "type": "function"
    },
    {
      "inputs": [
        {
          "internalType": "uint256",
          "name": "tokenId",
          "type": "uint256"
        }
      ],
      "name": "getApproved",
      "outputs": [
        {
          "internalType": "address",
          "name": "",
          "type": "address"
        }
      ],
      "stateMutability": "view",
      "type": "function"
    },
    {
      "inputs": [],
      "name": "getStrongHold",
      "outputs": [
        {
          "components": [
            {
              "internalType": "string",
              "name": "name",
              "type": "string"
            },
            {
              "internalType": "uint256",
              "name": "hp",
              "type": "uint256"
            },
            {
              "internalType": "uint256",
              "name": "attackDamage",
              "type": "uint256"
            }
          ],
          "internalType": "struct MyEpicGame.StrongHold",
          "name": "",
          "type": "tuple"
        }
      ],
      "stateMutability": "view",
      "type": "function"
    },
    {
      "inputs": [
        {
          "internalType": "address",
          "name": "owner",
          "type": "address"
        },
        {
          "internalType": "address",
          "name": "operator",
          "type": "address"
        }
      ],
      "name": "isApprovedForAll",
      "outputs": [
        {
          "internalType": "bool",
          "name": "",
          "type": "bool"
        }
      ],
      "stateMutability": "view",
      "type": "function"
    },
    {
      "inputs": [
        {
          "internalType": "uint256",
          "name": "_characterIndex",
          "type": "uint256"
        }
      ],
      "name": "mintCharacterNFT",
      "outputs": [],
      "stateMutability": "nonpayable",
      "type": "function"
    },
    {
      "inputs": [],
      "name": "name",
      "outputs": [
        {
          "internalType": "string",
          "name": "",
          "type": "string"
        }
      ],
      "stateMutability": "view",
      "type": "function"
    },
    {
      "inputs": [
        {
          "internalType": "uint256",
          "name": "",
          "type": "uint256"
        }
      ],
      "name": "nftHolderAttributes",
      "outputs": [
        {
          "internalType": "uint256",
          "name": "characterIndex",
          "type": "uint256"
        },
        {
          "internalType": "string",
          "name": "name",
          "type": "string"
        },
        {
          "internalType": "string",
          "name": "imageURI",
          "type": "string"
        },
        {
          "internalType": "uint256",
          "name": "level",
          "type": "uint256"
        },
        {
          "internalType": "uint256",
          "name": "hp",
          "type": "uint256"
        },
        {
          "internalType": "uint256",
          "name": "maxHp",
          "type": "uint256"
        },
        {
          "internalType": "uint256",
          "name": "attackDamage",
          "type": "uint256"
        },
        {
          "internalType": "uint256",
          "name": "speed",
          "type": "uint256"
        },
        {
          "internalType": "uint256",
          "name": "informationValue",
          "type": "uint256"
        }
      ],
      "stateMutability": "view",
      "type": "function"
    },
    {
      "inputs": [
        {
          "internalType": "address",
          "name": "",
          "type": "address"
        }
      ],
      "name": "nftHolders",
      "outputs": [
        {
          "internalType": "uint256",
          "name": "",
          "type": "uint256"
        }
      ],
      "stateMutability": "view",
      "type": "function"
    },
    {
      "inputs": [
        {
          "internalType": "uint256",
          "name": "tokenId",
          "type": "uint256"
        }
      ],
      "name": "ownerOf",
      "outputs": [
        {
          "internalType": "address",
          "name": "",
          "type": "address"
        }
      ],
      "stateMutability": "view",
      "type": "function"
    },
    {
      "inputs": [
        {
          "internalType": "address",
          "name": "from",
          "type": "address"
        },
        {
          "internalType": "address",
          "name": "to",
          "type": "address"
        },
        {
          "internalType": "uint256",
          "name": "tokenId",
          "type": "uint256"
        }
      ],
      "name": "safeTransferFrom",
      "outputs": [],
      "stateMutability": "nonpayable",
      "type": "function"
    },
    {
      "inputs": [
        {
          "internalType": "address",
          "name": "from",
          "type": "address"
        },
        {
          "internalType": "address",
          "name": "to",
          "type": "address"
        },
        {
          "internalType": "uint256",
          "name": "tokenId",
          "type": "uint256"
        },
        {
          "internalType": "bytes",
          "name": "_data",
          "type": "bytes"
        }
      ],
      "name": "safeTransferFrom",
      "outputs": [],
      "stateMutability": "nonpayable",
      "type": "function"
    },
    {
      "inputs": [
        {
          "internalType": "address",
          "name": "operator",
          "type": "address"
        },
        {
          "internalType": "bool",
          "name": "approved",
          "type": "bool"
        }
      ],
      "name": "setApprovalForAll",
      "outputs": [],
      "stateMutability": "nonpayable",
      "type": "function"
    },
    {
      "inputs": [],
      "name": "strongHold",
      "outputs": [
        {
          "internalType": "string",
          "name": "name",
          "type": "string"
        },
        {
          "internalType": "uint256",
          "name": "hp",
          "type": "uint256"
        },
        {
          "internalType": "uint256",
          "name": "attackDamage",
          "type": "uint256"
        }
      ],
      "stateMutability": "view",
      "type": "function"
    },
    {
      "inputs": [
        {
          "internalType": "bytes4",
          "name": "interfaceId",
          "type": "bytes4"
        }
      ],
      "name": "supportsInterface",
      "outputs": [
        {
          "internalType": "bool",
          "name": "",
          "type": "bool"
        }
      ],
      "stateMutability": "view",
      "type": "function"
    },
    {
      "inputs": [],
      "name": "symbol",
      "outputs": [
        {
          "internalType": "string",
          "name": "",
          "type": "string"
        }
      ],
      "stateMutability": "view",
      "type": "function"
    },
    {
      "inputs": [
        {
          "internalType": "uint256",
          "name": "_tokenId",
          "type": "uint256"
        }
      ],
      "name": "tokenURI",
      "outputs": [
        {
          "internalType": "string",
          "name": "",
          "type": "string"
        }
      ],
      "stateMutability": "view",
      "type": "function"
    },
    {
      "inputs": [
        {
          "internalType": "address",
          "name": "from",
          "type": "address"
        },
        {
          "internalType": "address",
          "name": "to",
          "type": "address"
        },
        {
          "internalType": "uint256",
          "name": "tokenId",
          "type": "uint256"
        }
      ],
      "name": "transferFrom",
      "outputs": [],
      "stateMutability": "nonpayable",
      "type": "function"
    }
  ],
  "bytecode": "0x60806040523480156200001157600080fd5b50604051620042b8380380620042b883398101604081905262000034916200090c565b60408051808201825260078152664861636b65727360c81b6020808301918252835180850190945260048452634841434b60e01b9084015281519192916200007f91600091620006e1565b50805162000095906001906020840190620006e1565b50506040805160608101825285815260208082018690529181018490528551909250600a91620000ca918391880190620006e1565b506020820151816001015560408201518160020155905050620001aa6040518060600160405280602281526020016200429660229139600a80546200010f9062000c8b565b80601f01602080910402602001604051908101604052809291908181526020018280546200013d9062000c8b565b80156200018e5780601f1062000162576101008083540402835291602001916200018e565b820191906000526020600020905b8154815290600101906020018083116200017057829003601f168201915b5050505050600a600101546200060c60201b620015ba1760201c565b60005b8a51811015620005e45760076040518061012001604052808381526020018d8481518110620001ec57634e487b7160e01b600052603260045260246000fd5b602002602001015181526020018c84815181106200021a57634e487b7160e01b600052603260045260246000fd5b602002602001015181526020018b84815181106200024857634e487b7160e01b600052603260045260246000fd5b602002602001015181526020018a84815181106200027657634e487b7160e01b600052603260045260246000fd5b602002602001015181526020018a8481518110620002a457634e487b7160e01b600052603260045260246000fd5b60200260200101518152602001898481518110620002d257634e487b7160e01b600052603260045260246000fd5b602002602001015181526020018884815181106200030057634e487b7160e01b600052603260045260246000fd5b602002602001015181526020018784815181106200032e57634e487b7160e01b600052603260045260246000fd5b6020908102919091018101519091528254600181810185556000948552938290208351600990920201908155828201518051939491936200037893928501929190910190620006e1565b506040820151805162000396916002840191602090910190620006e1565b50606082015181600301556080820151816004015560a0820151816005015560c0820151816006015560e0820151816007015561010082015181600801555050600060078281548110620003fa57634e487b7160e01b600052603260045260246000fd5b90600052602060002090600902016040518061012001604052908160008201548152602001600182018054620004309062000c8b565b80601f01602080910402602001604051908101604052809291908181526020018280546200045e9062000c8b565b8015620004af5780601f106200048357610100808354040283529160200191620004af565b820191906000526020600020905b8154815290600101906020018083116200049157829003601f168201915b50505050508152602001600282018054620004ca9062000c8b565b80601f0160208091040260200160405190810160405280929190818152602001828054620004f89062000c8b565b8015620005495780601f106200051d5761010080835404028352916020019162000549565b820191906000526020600020905b8154815290600101906020018083116200052b57829003601f168201915b5050505050815260200160038201548152602001600482015481526020016005820154815260200160068201548152602001600782015481526020016008820154815250509050620005ce60405180606001604052806025815260200162004271602591398260200151836080015184604001516200066060201b620016011760201c565b50620005dc60018262000c24565b9050620001ad565b50620005fc6006620006b760201b6200164a1760201c565b5050505050505050505062000d54565b6200065b838383604051602401620006279392919062000b0a565b60408051601f198184030181529190526020810180516001600160e01b0390811663f362ca5960e01b17909152620006c016565b505050565b620006b1848484846040516024016200067d949392919062000b44565b60408051601f198184030181529190526020810180516001600160e01b03908116638d142cdd60e01b17909152620006c016565b50505050565b80546001019055565b80516a636f6e736f6c652e6c6f67602083016000808483855afa5050505050565b828054620006ef9062000c8b565b90600052602060002090601f0160209004810192826200071357600085556200075e565b82601f106200072e57805160ff19168380011785556200075e565b828001600101855582156200075e579182015b828111156200075e57825182559160200191906001019062000741565b506200076c92915062000770565b5090565b5b808211156200076c576000815560010162000771565b60006200079e620007988462000bc1565b62000b9c565b8381529050602081018260005b85811015620007db5781518501620007c48882620008d5565b8452506020928301929190910190600101620007ab565b5050509392505050565b6000620007f6620007988462000bc1565b905080838252602082019050828560208602820111156200081657600080fd5b60005b85811015620007db57816200082f8882620008f9565b845250602092830192919091019060010162000819565b600062000857620007988462000be7565b9050828152602081018484840111156200087057600080fd5b6200087d84828562000c5c565b509392505050565b600082601f8301126200089757600080fd5b8151620008a984826020860162000787565b949350505050565b600082601f830112620008c357600080fd5b8151620008a9848260208601620007e5565b600082601f830112620008e757600080fd5b8151620008a984826020860162000846565b8051620009068162000d3a565b92915050565b6000806000806000806000806000806101408b8d0312156200092d57600080fd5b8a516001600160401b038111156200094457600080fd5b620009528d828e0162000885565b9a505060208b01516001600160401b038111156200096f57600080fd5b6200097d8d828e0162000885565b99505060408b01516001600160401b038111156200099a57600080fd5b620009a88d828e01620008b1565b98505060608b01516001600160401b03811115620009c557600080fd5b620009d38d828e01620008b1565b97505060808b01516001600160401b03811115620009f057600080fd5b620009fe8d828e01620008b1565b96505060a08b01516001600160401b0381111562000a1b57600080fd5b62000a298d828e01620008b1565b95505060c08b01516001600160401b0381111562000a4657600080fd5b62000a548d828e01620008b1565b94505060e08b01516001600160401b0381111562000a7157600080fd5b62000a7f8d828e01620008d5565b93505061010062000a938d828e01620008f9565b92505061012062000aa78d828e01620008f9565b9150509295989b9194979a5092959850565b600062000ac68262000c17565b62000ad2818562000c1b565b935062000ae481856020860162000c5c565b62000aef8162000d30565b9093019392505050565b62000b048162000c59565b82525050565b6060808252810162000b1d818662000ab9565b9050818103602083015262000b33818562000ab9565b9050620008a9604083018462000af9565b6080808252810162000b57818762000ab9565b9050818103602083015262000b6d818662000ab9565b905062000b7e604083018562000af9565b818103606083015262000b92818462000ab9565b9695505050505050565b600062000ba862000bbb565b905062000bb6828262000cbc565b919050565b60405190565b60006001600160401b0382111562000bdd5762000bdd62000d1a565b5060209081020190565b60006001600160401b0382111562000c035762000c0362000d1a565b62000c0e8262000d30565b60200192915050565b5190565b90815260200190565b600062000c318262000c59565b915062000c3e8362000c59565b9250821982111562000c545762000c5462000cee565b500190565b90565b60005b8381101562000c7957818101518382015260200162000c5f565b83811115620006b15750506000910152565b60028104600182168062000ca057607f821691505b6020821081141562000cb65762000cb662000d04565b50919050565b62000cc78262000d30565b81018181106001600160401b038211171562000ce75762000ce762000d1a565b6040525050565b634e487b7160e01b600052601160045260246000fd5b634e487b7160e01b600052602260045260246000fd5b634e487b7160e01b600052604160045260246000fd5b601f01601f191690565b62000d458162000c59565b811462000d5157600080fd5b50565b61350d8062000d646000396000f3fe608060405234801561001057600080fd5b50600436106101375760003560e01c806395d89b41116100b8578063be973c261161007c578063be973c261461029b578063c87b56dd146102b2578063c8cf27f4146102c5578063d4f24c5b146102da578063e985e9c5146102e2578063f8b81ef7146102f557610137565b806395d89b411461023057806398da4c9514610238578063a22cb46514610260578063b88d4fde14610273578063b953084e1461028657610137565b80632c1e06af116100ff5780632c1e06af146101c257806342842e0e146101d75780636352211e146101ea57806370a08231146101fd5780637df124a11461021d57610137565b806301ffc9a71461013c57806306fdde0314610165578063081812fc1461017a578063095ea7b31461019a57806323b872dd146101af575b600080fd5b61014f61014a36600461227d565b610308565b60405161015c9190612928565b60405180910390f35b61016d610350565b60405161015c9190612936565b61018d6101883660046122b9565b6103e3565b60405161015c919061289d565b6101ad6101a836600461224d565b61042f565b005b6101ad6101bd366004612157565b6104c7565b6101ca6104ff565b60405161015c9190612b3a565b6101ad6101e5366004612157565b6105bf565b61018d6101f83660046122b9565b6105da565b61021061020b3660046120ff565b61060f565b60405161015c9190612b4b565b61021061022b3660046120ff565b610653565b61016d610665565b61024b6102463660046122b9565b610674565b60405161015c99989796959493929190612b59565b6101ad61026e36600461221d565b6107cb565b6101ad6102813660046121a4565b6107e1565b61028e610820565b60405161015c9190612917565b6102a36109ea565b60405161015c93929190612a19565b61016d6102c03660046122b9565b610a88565b6102cd610cf5565b60405161015c9190612b29565b6101ad610eb9565b61014f6102f036600461211d565b611199565b6101ad6103033660046122b9565b6111c9565b60006001600160e01b031982166380ac58cd60e01b148061033957506001600160e01b03198216635b5e139f60e01b145b80610348575061034882611653565b90505b919050565b60606000805461035f90612d63565b80601f016020809104026020016040519081016040528092919081815260200182805461038b90612d63565b80156103d85780601f106103ad576101008083540402835291602001916103d8565b820191906000526020600020905b8154815290600101906020018083116103bb57829003601f168201915b505050505090505b90565b60006103ee8261166c565b6104135760405162461bcd60e51b815260040161040a90612ae9565b60405180910390fd5b506000908152600460205260409020546001600160a01b031690565b600061043a826105da565b9050806001600160a01b0316836001600160a01b0316141561046e5760405162461bcd60e51b815260040161040a90612af9565b806001600160a01b0316610480611689565b6001600160a01b0316148061049c575061049c816102f0611689565b6104b85760405162461bcd60e51b815260040161040a90612aa9565b6104c2838361168d565b505050565b6104d86104d2611689565b826116fb565b6104f45760405162461bcd60e51b815260040161040a90612b19565b6104c2838383611780565b610507611f6c565b600a60405180606001604052908160008201805461052490612d63565b80601f016020809104026020016040519081016040528092919081815260200182805461055090612d63565b801561059d5780601f106105725761010080835404028352916020019161059d565b820191906000526020600020905b81548152906001019060200180831161058057829003601f168201915b5050505050815260200160018201548152602001600282015481525050905090565b6104c2838383604051806020016040528060008152506107e1565b6000818152600260205260408120546001600160a01b0316806103485760405162461bcd60e51b815260040161040a90612ac9565b60006001600160a01b0382166106375760405162461bcd60e51b815260040161040a90612ab9565b506001600160a01b031660009081526003602052604090205490565b60096020526000908152604090205481565b60606001805461035f90612d63565b6008602052600090815260409020805460018201805491929161069690612d63565b80601f01602080910402602001604051908101604052809291908181526020018280546106c290612d63565b801561070f5780601f106106e45761010080835404028352916020019161070f565b820191906000526020600020905b8154815290600101906020018083116106f257829003601f168201915b50505050509080600201805461072490612d63565b80601f016020809104026020016040519081016040528092919081815260200182805461075090612d63565b801561079d5780601f106107725761010080835404028352916020019161079d565b820191906000526020600020905b81548152906001019060200180831161078057829003601f168201915b5050505050908060030154908060040154908060050154908060060154908060070154908060080154905089565b6107dd6107d6611689565b83836118b3565b5050565b6107f26107ec611689565b836116fb565b61080e5760405162461bcd60e51b815260040161040a90612b19565b61081a84848484611956565b50505050565b60606007805480602002602001604051908101604052809291908181526020016000905b828210156109e15783829060005260206000209060090201604051806101200160405290816000820154815260200160018201805461088290612d63565b80601f01602080910402602001604051908101604052809291908181526020018280546108ae90612d63565b80156108fb5780601f106108d0576101008083540402835291602001916108fb565b820191906000526020600020905b8154815290600101906020018083116108de57829003601f168201915b5050505050815260200160028201805461091490612d63565b80601f016020809104026020016040519081016040528092919081815260200182805461094090612d63565b801561098d5780601f106109625761010080835404028352916020019161098d565b820191906000526020600020905b81548152906001019060200180831161097057829003601f168201915b50505050508152602001600382015481526020016004820154815260200160058201548152602001600682015481526020016007820154815260200160088201548152505081526020019060010190610844565b50505050905090565b600a805481906109f990612d63565b80601f0160208091040260200160405190810160405280929190818152602001828054610a2590612d63565b8015610a725780601f10610a4757610100808354040283529160200191610a72565b820191906000526020600020905b815481529060010190602001808311610a5557829003601f168201915b5050505050908060010154908060020154905083565b600081815260086020908152604080832081516101208101909252805482526001810180546060959484019190610abe90612d63565b80601f0160208091040260200160405190810160405280929190818152602001828054610aea90612d63565b8015610b375780601f10610b0c57610100808354040283529160200191610b37565b820191906000526020600020905b815481529060010190602001808311610b1a57829003601f168201915b50505050508152602001600282018054610b5090612d63565b80601f0160208091040260200160405190810160405280929190818152602001828054610b7c90612d63565b8015610bc95780601f10610b9e57610100808354040283529160200191610bc9565b820191906000526020600020905b815481529060010190602001808311610bac57829003601f168201915b50505050508152602001600382015481526020016004820154815260200160058201548152602001600682015481526020016007820154815260200160088201548152505090506000610c1f8260600151611989565b90506000610c308360800151611989565b90506000610c418460a00151611989565b90506000610c528560c00151611989565b90506000610c638660e00151611989565b90506000610c75876101000151611989565b90506000610cc18860200151610c8a8c611989565b8a604001518a8a8a8a8a8a604051602001610cad9998979695949392919061279d565b604051602081830303815290604052611aa4565b9050600081604051602001610cd69190612886565b60408051808303601f190181529190529b9a5050505050505050505050565b610cfd611f8d565b336000908152600960205260409020548015610ea457600860008281526020019081526020016000206040518061012001604052908160008201548152602001600182018054610d4c90612d63565b80601f0160208091040260200160405190810160405280929190818152602001828054610d7890612d63565b8015610dc55780601f10610d9a57610100808354040283529160200191610dc5565b820191906000526020600020905b815481529060010190602001808311610da857829003601f168201915b50505050508152602001600282018054610dde90612d63565b80601f0160208091040260200160405190810160405280929190818152602001828054610e0a90612d63565b8015610e575780601f10610e2c57610100808354040283529160200191610e57565b820191906000526020600020905b815481529060010190602001808311610e3a57829003601f168201915b5050505050815260200160038201548152602001600482015481526020016005820154815260200160068201548152602001600782015481526020016008820154815250509150506103e0565b610eac611f8d565b91506103e09050565b5090565b336000908152600960209081526040808320548084526008835292819020815160608101909252603c8083529092610f9092919061349c90830139826001018054610f0390612d63565b80601f0160208091040260200160405190810160405280929190818152602001828054610f2f90612d63565b8015610f7c5780601f10610f5157610100808354040283529160200191610f7c565b820191906000526020600020905b815481529060010190602001808311610f5f57829003601f168201915b505050505083600401548460060154611c18565b6110686040518060400160405280601b81526020017f426f73732025732068617320257320485020616e642025732041440000000000815250600a6000018054610fd990612d63565b80601f016020809104026020016040519081016040528092919081815260200182805461100590612d63565b80156110525780601f1061102757610100808354040283529160200191611052565b820191906000526020600020905b81548152906001019060200180831161103557829003601f168201915b5050505050600a60010154600a60020154611c18565b600081600401541161108c5760405162461bcd60e51b815260040161040a90612b09565b600b546110ab5760405162461bcd60e51b815260040161040a90612a59565b6006810154600b5410156110c3576000600b556110d9565b6006810154600b546110d59190612cd5565b600b555b600c54600482015410156110f3576000600482015561110b565b600c5460048201546111059190612cd5565b60048201555b61112f6040518060600160405280602581526020016133e160259139600b54611c61565b611155604051806060016040528060288152602001613446602891398260040154611c61565b600b5460048201546040517f32bd565ee3f2cb5ddd742bbecd6048d3e9abe90b3827a40c2b72d232e71e3c9d9261118d9233926128ef565b60405180910390a15050565b6001600160a01b0380831660009081526005602090815260408083209385168352929052205460ff165b92915050565b60006111d56006611ca6565b90506111e13382611caa565b6040518061012001604052808381526020016007848154811061121457634e487b7160e01b600052603260045260246000fd5b9060005260206000209060090201600101805461123090612d63565b80601f016020809104026020016040519081016040528092919081815260200182805461125c90612d63565b80156112a95780601f1061127e576101008083540402835291602001916112a9565b820191906000526020600020905b81548152906001019060200180831161128c57829003601f168201915b50505050508152602001600784815481106112d457634e487b7160e01b600052603260045260246000fd5b906000526020600020906009020160020180546112f090612d63565b80601f016020809104026020016040519081016040528092919081815260200182805461131c90612d63565b80156113695780601f1061133e57610100808354040283529160200191611369565b820191906000526020600020905b81548152906001019060200180831161134c57829003601f168201915b505050505081526020016007848154811061139457634e487b7160e01b600052603260045260246000fd5b9060005260206000209060090201600301548152602001600784815481106113cc57634e487b7160e01b600052603260045260246000fd5b90600052602060002090600902016004015481526020016007848154811061140457634e487b7160e01b600052603260045260246000fd5b90600052602060002090600902016005015481526020016007848154811061143c57634e487b7160e01b600052603260045260246000fd5b90600052602060002090600902016006015481526020016007848154811061147457634e487b7160e01b600052603260045260246000fd5b9060005260206000209060090201600701548152602001600784815481106114ac57634e487b7160e01b600052603260045260246000fd5b6000918252602080832060086009909302018201549093528482528252604090208251815582820151805191926114eb92600185019290910190611fd9565b5060408201518051611507916002840191602090910190611fd9565b50606082015181600301556080820151816004015560a0820151816005015560c0820151816006015560e08201518160070155610100820151816008015590505061156b6040518060600160405280602e815260200161346e602e91398284611cc4565b336000908152600960205260409020819055611587600661164a565b7f4bc303fd457a97b4691b9af582ce71868a3d258638c8d4f8c60988a0f0bfb8cd33828460405161118d939291906128ef565b6104c28383836040516024016115d293929190612947565b60408051601f198184030181529190526020810180516001600160e01b031663f362ca5960e01b179052611d07565b61081a8484848460405160240161161b949392919061297b565b60408051601f198184030181529190526020810180516001600160e01b0316638d142cdd60e01b179052611d07565b80546001019055565b6001600160e01b031981166301ffc9a760e01b14919050565b6000908152600260205260409020546001600160a01b0316151590565b3390565b600081815260046020526040902080546001600160a01b0319166001600160a01b03841690811790915581906116c2826105da565b6001600160a01b03167f8c5be1e5ebec7d5bd14f71427d1e84f3dd0314c0f7b2291e5b200ac8c7c3b92560405160405180910390a45050565b60006117068261166c565b6117225760405162461bcd60e51b815260040161040a90612a99565b600061172d836105da565b9050806001600160a01b0316846001600160a01b0316148061175457506117548185611199565b806117785750836001600160a01b031661176d846103e3565b6001600160a01b0316145b949350505050565b826001600160a01b0316611793826105da565b6001600160a01b0316146117b95760405162461bcd60e51b815260040161040a90612a49565b6001600160a01b0382166117df5760405162461bcd60e51b815260040161040a90612a79565b6117ea8383836104c2565b6117f560008261168d565b6001600160a01b038316600090815260036020526040812080546001929061181e908490612cd5565b90915550506001600160a01b038216600090815260036020526040812080546001929061184c908490612c48565b909155505060008181526002602052604080822080546001600160a01b0319166001600160a01b0386811691821790925591518493918716917fddf252ad1be2c89b69c2b068fc378daa952ba7f163c4a11628f55a4df523b3ef91a46104c28383836104c2565b816001600160a01b0316836001600160a01b031614156118e55760405162461bcd60e51b815260040161040a90612a89565b6001600160a01b0383811660008181526005602090815260408083209487168084529490915290819020805460ff1916851515179055517f17307eab39ab6107e8899845ad3d59bd9653f200f220920489ca2b5937696c3190611949908590612928565b60405180910390a3505050565b611961848484611780565b61196d84848484611d28565b61081a5760405162461bcd60e51b815260040161040a90612a39565b6060816119ae57506040805180820190915260018152600360fc1b602082015261034b565b8160005b81156119d857806119c281612dbe565b91506119d19050600a83612c76565b91506119b2565b60008167ffffffffffffffff811115611a0157634e487b7160e01b600052604160045260246000fd5b6040519080825280601f01601f191660200182016040528015611a2b576020820181803683370190505b5090505b841561177857611a40600183612cd5565b9150611a4d600a86612de4565b611a58906030612c48565b60f81b818381518110611a7b57634e487b7160e01b600052603260045260246000fd5b60200101906001600160f81b031916908160001a905350611a9d600a86612c76565b9450611a2f565b805160609080611ac457505060408051602081019091526000815261034b565b60006003611ad3836002612c48565b611add9190612c76565b611ae8906004612ca0565b90506000611af7826020612c48565b67ffffffffffffffff811115611b1d57634e487b7160e01b600052604160045260246000fd5b6040519080825280601f01601f191660200182016040528015611b47576020820181803683370190505b5090506000604051806060016040528060408152602001613406604091399050600181016020830160005b86811015611bd3576003818a01810151603f601282901c8116860151600c83901c8216870151600684901c831688015192909316870151600891821b60ff94851601821b92841692909201901b91160160e01b835260049092019101611b72565b506003860660018114611bed5760028114611bfe57611c0a565b613d3d60f01b600119830152611c0a565b603d60f81b6000198301525b505050918152949350505050565b61081a84848484604051602401611c3294939291906129af565b60408051601f198184030181529190526020810180516001600160e01b0316630d5cf17d60e41b179052611d07565b6107dd8282604051602401611c779291906129f9565b60408051601f198184030181529190526020810180516001600160e01b03166309710a9d60e41b179052611d07565b5490565b6107dd828260405180602001604052806000815250611e43565b6104c2838383604051602401611cdc93929190612a19565b60408051601f198184030181529190526020810180516001600160e01b031663969cdd0360e01b1790525b80516a636f6e736f6c652e6c6f67602083016000808483855afa5050505050565b6000611d3c846001600160a01b0316611e76565b15611e3857836001600160a01b031663150b7a02611d58611689565b8786866040518563ffffffff1660e01b8152600401611d7a94939291906128ab565b602060405180830381600087803b158015611d9457600080fd5b505af1925050508015611dc4575060408051601f3d908101601f19168201909252611dc19181019061229b565b60015b611e1e573d808015611df2576040519150601f19603f3d011682016040523d82523d6000602084013e611df7565b606091505b508051611e165760405162461bcd60e51b815260040161040a90612a39565b805181602001fd5b6001600160e01b031916630a85bd0160e11b149050611778565b506001949350505050565b611e4d8383611e85565b611e5a6000848484611d28565b6104c25760405162461bcd60e51b815260040161040a90612a39565b6001600160a01b03163b151590565b6001600160a01b038216611eab5760405162461bcd60e51b815260040161040a90612ad9565b611eb48161166c565b15611ed15760405162461bcd60e51b815260040161040a90612a69565b611edd600083836104c2565b6001600160a01b0382166000908152600360205260408120805460019290611f06908490612c48565b909155505060008181526002602052604080822080546001600160a01b0319166001600160a01b03861690811790915590518392907fddf252ad1be2c89b69c2b068fc378daa952ba7f163c4a11628f55a4df523b3ef908290a46107dd600083836104c2565b60405180606001604052806060815260200160008152602001600081525090565b6040518061012001604052806000815260200160608152602001606081526020016000815260200160008152602001600081526020016000815260200160008152602001600081525090565b828054611fe590612d63565b90600052602060002090601f016020900481019282612007576000855561204d565b82601f1061202057805160ff191683800117855561204d565b8280016001018555821561204d579182015b8281111561204d578251825591602001919060010190612032565b50610eb59291505b80821115610eb55760008155600101612055565b600061207c61207784612c09565b612bed565b90508281526020810184848401111561209457600080fd5b61209f848285612d2b565b509392505050565b80356111c3816133ae565b80356111c3816133c5565b80356111c3816133ce565b80516111c3816133ce565b600082601f8301126120e457600080fd5b8135611778848260208601612069565b80356111c3816133d7565b60006020828403121561211157600080fd5b600061177884846120a7565b6000806040838503121561213057600080fd5b600061213c85856120a7565b925050602061214d858286016120a7565b9150509250929050565b60008060006060848603121561216c57600080fd5b600061217886866120a7565b9350506020612189868287016120a7565b925050604061219a868287016120f4565b9150509250925092565b600080600080608085870312156121ba57600080fd5b60006121c687876120a7565b94505060206121d7878288016120a7565b93505060406121e8878288016120f4565b925050606085013567ffffffffffffffff81111561220557600080fd5b612211878288016120d3565b91505092959194509250565b6000806040838503121561223057600080fd5b600061223c85856120a7565b925050602061214d858286016120b2565b6000806040838503121561226057600080fd5b600061226c85856120a7565b925050602061214d858286016120f4565b60006020828403121561228f57600080fd5b600061177884846120bd565b6000602082840312156122ad57600080fd5b600061177884846120c8565b6000602082840312156122cb57600080fd5b600061177884846120f4565b60006122e3838361269b565b9392505050565b6122f381612d02565b82525050565b600061230482612c3b565b61230e8185612c3f565b93508360208202850161232085612c35565b8060005b8581101561235a578484038952815161233d85826122d7565b945061234883612c35565b60209a909a0199925050600101612324565b5091979650505050505050565b6122f381612d0d565b600061237b82612c3b565b6123858185612c3f565b9350612395818560208601612d37565b61239e81612e66565b9093019392505050565b60006123b382612c3b565b6123bd818561034b565b93506123cd818560208601612d37565b9290920192915050565b60006123e4600b8361034b565b91506123ef82612e70565b50600b0190565b600061240360318361034b565b915061240e82612e83565b5060310190565b6000612422603283612c3f565b915061242d82612ec3565b5060400190565b6000612441602583612c3f565b915061242d82612f04565b6000612459602883612c3f565b915061242d82612f38565b6000612471601c83612c3f565b915061247c82612f6f565b5060200190565b6000612490602d8361034b565b915061249b82612f94565b50602d0190565b60006124af60258361034b565b91506124ba82612fd0565b5060250190565b60006124ce600e8361034b565b91506124d982613004565b50600e0190565b60006124ed602483612c3f565b915061242d8261301a565b6000612505601983612c3f565b915061247c8261304d565b600061251d602c83612c3f565b915061242d82613072565b6000612535603883612c3f565b915061242d826130ad565b600061254d602a83612c3f565b915061242d826130f9565b6000612565602983612c3f565b915061242d82613132565b600061257d60048361034b565b91506125888261316a565b5060040190565b600061259c602083612c3f565b915061247c82613176565b60006125b4602c83612c3f565b915061242d8261319b565b60006125cc60358361034b565b91506125d7826131d6565b5060350190565b60006125eb60358361034b565b91506125d78261321a565b6000612603600a8361034b565b915061260e8261325e565b50600a0190565b6000612622602183612c3f565b915061242d82613270565b600061263a603583612c3f565b915061242d826132a0565b6000612652601d8361034b565b915061265d826132e4565b50601d0190565b6000612671603183612c3f565b915061242d82613309565b600061268960508361034b565b915061269482613349565b5060500190565b80516000906101208401906126b08582612794565b50602083015184820360208601526126c88282612370565b915050604083015184820360408601526126e28282612370565b91505060608301516126f76060860182612794565b50608083015161270a6080860182612794565b5060a083015161271d60a0860182612794565b5060c083015161273060c0860182612794565b5060e083015161274360e0860182612794565b5061010083015161209f610100860182612794565b80516060808452600091908401906127708282612370565b91505060208301516127856020860182612794565b50604083015161209f60408601825b6122f3816103e0565b60006127a8826125f6565b91506127b4828c6123a8565b91506127bf826123d7565b91506127cb828b6123a8565b91506127d68261267c565b91506127e2828a6123a8565b91506127ed826125de565b91506127f982896123a8565b915061280482612483565b915061281082886123a8565b915061281b826124c1565b915061282782876123a8565b9150612832826125bf565b915061283e82866123a8565b9150612849826124a2565b915061285582856123a8565b9150612860826123f6565b915061286c82846123a8565b915061287782612570565b9b9a5050505050505050505050565b600061289182612645565b91506122e382846123a8565b602081016111c382846122ea565b608081016128b982876122ea565b6128c660208301866122ea565b6128d36040830185612794565b81810360608301526128e58184612370565b9695505050505050565b606081016128fd82866122ea565b61290a6020830185612794565b6117786040830184612794565b602080825281016122e381846122f9565b602081016111c38284612367565b602080825281016122e38184612370565b606080825281016129588186612370565b9050818103602083015261296c8185612370565b90506117786040830184612794565b6080808252810161298c8187612370565b905081810360208301526129a08186612370565b90506128d36040830185612794565b608080825281016129c08187612370565b905081810360208301526129d48186612370565b90506129e36040830185612794565b6129f06060830184612794565b95945050505050565b60408082528101612a0a8185612370565b90506122e36020830184612794565b60608082528101612a2a8186612370565b905061290a6020830185612794565b6020808252810161034881612415565b6020808252810161034881612434565b602080825281016103488161244c565b6020808252810161034881612464565b60208082528101610348816124e0565b60208082528101610348816124f8565b6020808252810161034881612510565b6020808252810161034881612528565b6020808252810161034881612540565b6020808252810161034881612558565b602080825281016103488161258f565b60208082528101610348816125a7565b6020808252810161034881612615565b602080825281016103488161262d565b6020808252810161034881612664565b602080825281016122e3818461269b565b602080825281016122e38184612758565b602081016111c38284612794565b6101208101612b68828c612794565b8181036020830152612b7a818b612370565b90508181036040830152612b8e818a612370565b9050612b9d6060830189612794565b612baa6080830188612794565b612bb760a0830187612794565b612bc460c0830186612794565b612bd160e0830185612794565b612bdf610100830184612794565b9a9950505050505050505050565b6000612bf7612c03565b905061034b8282612d90565b60405190565b600067ffffffffffffffff821115612c2357612c23612e50565b612c2c82612e66565b60200192915050565b60200190565b5190565b90815260200190565b6000612c53826103e0565b9150612c5e836103e0565b92508219821115612c7157612c71612e0e565b500190565b6000612c81826103e0565b9150612c8c836103e0565b925082612c9b57612c9b612e24565b500490565b6000612cab826103e0565b9150612cb6836103e0565b9250816000190483118215151615612cd057612cd0612e0e565b500290565b6000612ce0826103e0565b9150612ceb836103e0565b925082821015612cfd57612cfd612e0e565b500390565b600061034882612d1f565b151590565b6001600160e01b03191690565b6001600160a01b031690565b82818337506000910152565b60005b83811015612d52578181015183820152602001612d3a565b8381111561081a5750506000910152565b600281046001821680612d7757607f821691505b60208210811415612d8a57612d8a612e3a565b50919050565b612d9982612e66565b810181811067ffffffffffffffff82111715612db757612db7612e50565b6040525050565b6000612dc9826103e0565b9150600019821415612ddd57612ddd612e0e565b5060010190565b6000612def826103e0565b9150612dfa836103e0565b925082612e0957612e09612e24565b500690565b634e487b7160e01b600052601160045260246000fd5b634e487b7160e01b600052601260045260246000fd5b634e487b7160e01b600052602260045260246000fd5b634e487b7160e01b600052604160045260246000fd5b601f01601f191690565b6a01016969027232a10119d160ad1b9052565b7f7d2c207b202274726169745f74797065223a2022496e666f726d6174696f6e2081527002b30b63ab2911610113b30b63ab2911d1607d1b602090910152565b7f4552433732313a207472616e7366657220746f206e6f6e20455243373231526581527131b2b4bb32b91034b6b83632b6b2b73a32b960711b602090910152565b7f4552433732313a207472616e736665722066726f6d20696e636f72726563742081526437bbb732b960d91b602090910152565b7f4572726f723a20626f7373206d757374206861766520485020746f206174746181526731b5903137b9b99760c11b602090910152565b7f4552433732313a20746f6b656e20616c7265616479206d696e746564000000009052565b7f7d2c207b202274726169745f74797065223a20224865616c746820506f696e7481526c039911610113b30b63ab2911d1609d1b602090910152565b7f7d2c207b202274726169745f74797065223a20225370656564222c202276616c81526403ab2911d160dd1b602090910152565b6d16101136b0bc2fbb30b63ab2911d60911b9052565b7f4552433732313a207472616e7366657220746f20746865207a65726f206164648152637265737360e01b602090910152565b7f4552433732313a20617070726f766520746f2063616c6c6572000000000000009052565b7f4552433732313a206f70657261746f7220717565727920666f72206e6f6e657881526b34b9ba32b73a103a37b5b2b760a11b602090910152565b7f4552433732313a20617070726f76652063616c6c6572206973206e6f74206f7781527f6e6572206e6f7220617070726f76656420666f7220616c6c0000000000000000602090910152565b7f4552433732313a2062616c616e636520717565727920666f7220746865207a65815269726f206164647265737360b01b602090910152565b7f4552433732313a206f776e657220717565727920666f72206e6f6e657869737481526832b73a103a37b5b2b760b91b602090910152565b637d205d7d60e01b9052565b7f4552433732313a206d696e7420746f20746865207a65726f20616464726573739052565b7f4552433732313a20617070726f76656420717565727920666f72206e6f6e657881526b34b9ba32b73a103a37b5b2b760a11b602090910152565b7f7d2c207b202274726169745f74797065223a202241747461636b2044616d616781527403290283934b6b0b93c911610113b30b63ab2911d1605d1b602090910152565b7f222c202261747472696275746573223a205b207b202274726169745f747970658152740111d10112632bb32b6111610113b30b63ab2911d1605d1b602090910152565b693d913730b6b2911d101160b11b9052565b7f4552433732313a20617070726f76616c20746f2063757272656e74206f776e658152603960f91b602090910152565b7f4572726f723a20636861726163746572206d757374206861766520485020746f8152741030ba3a30b1b590309039ba3937b733b437b6321760591b602090910152565b7f646174613a6170706c69636174696f6e2f6a736f6e3b6261736536342c0000009052565b7f4552433732313a207472616e736665722063616c6c6572206973206e6f74206f8152701ddb995c881b9bdc88185c1c1c9bdd9959607a1b602090910152565b7f222c20226465736372697074696f6e223a20225468697320697320612048616381527f6b6572206e656564656420746f20706c6179204f7264657220616e642043686160208201526f37b9971116101134b6b0b3b2911d101160811b604090910152565b6133b781612d02565b81146133c257600080fd5b50565b6133b781612d0d565b6133b781612d12565b6133b7816103e056fe506c617965722061747461636b656420626f73732e204e657720626f73732068703a2025734142434445464748494a4b4c4d4e4f505152535455565758595a6162636465666768696a6b6c6d6e6f707172737475767778797a303132333435363738392b2f426f73732061747461636b656420706c617965722e204e657720706c617965722068703a2025730a4d696e746564204e465420772f20746f6b656e496420257320616e6420636861726163746572496e6465782025730a506c6179657220772f206368617261637465722025732061626f757420746f2061747461636b2e2048617320257320485020616e64202573204144a26469706673582212204e560eaa14083e6c5f40ddda974d8b49cc559c2b2df82f3c7a74a0c74d46068e64736f6c63430008010033446f6e6520696e697469616c697a696e6720257320772f2048502025732c20696d67202573446f6e6520696e697469616c697a696e6720626f737320257320772f204850202573",
  "linkReferences": {},
  "deployedLinkReferences": {}
}